:100000000C942F010C9476010C9476010C947601DB
:100010000C9476010C9476010C9476010C94760184
:100020000C9476010C9476010C94241B0C94F81B10
:100030000C9448160C9476010C9476010C9476017D
:100040000C9476010C9476010C9476010C94760154
:100050000C9476010C949F160C9476010C94760106
:100060000C9476010C9476010C9476010C94760134
:100070000C9476010C9476010C9476010C94760124
:100080000C9476010C9476010C9476010C94760114
:100090000C9476010C9476010C9476010C94760104
:1000A0000C9476010C9476010C94760100003203D6
:1000B0004D006900630072006F0073006F006600FE
:1000C0007400200057006900720065006400200081
:1000D0004B006500790062006F00610072006400EF
:1000E000000032034D006900630072006F0073006E
:1000F0006F00660074002000570069007200650000
:10010000640020004B006500790062006F00610010
:100110007200640000000403090409023B000201AC
:1001200000A0FA09040000010301010009211101E6
:1001300000012240000705810308000A09040100AC
:10014000010300000009211101000122B60007058A
:10015000820320000A1201100100000008010001C2
:100160000001000102000105010902A10185020947
:1001700001A1000509190129081500250195087537
:100180000181020501093009311581257F9502752C
:1001900008810609381581257F95017508810605B6
:1001A0000C0A38021581257F950175088106C0C0AB
:1001B00005010980A101850319012AB7001501264F
:1001C000B700950175108100C0050C0901A10185DA
:1001D0000419012AA002150126A0029501751081BB
:1001E00000C005010906A1018505050719E029E7F9
:1001F000150025019508750181020507190029EFF1
:100200001500250195F075018102050819012905E0
:10021000950575019102950175039101C0050109CC
:1002200006A101050719E029E715002501950875C4
:100230000181029501750881010507190029FF1543
:100240000026FF009506750881000508190129059B
:10025000950575019102950175039101C000112466
:100260001FBECFEFDAE0DEBFCDBF04B603FE27C06E
:100270008091460290914702A0914802B0914902B4
:100280008730904BA740B04BD1F4109246021092A9
:100290004702109248021092490214BE84B7877F29
:1002A00084BF0FB6F894A895809160008861809310
:1002B0006000109260000FBEE0E0F8E3099511E0E5
:1002C000A0E0B1E0E8E8FCE302C005900D92A6379B
:1002D000B107D9F722E0A6E7B1E001C01D92A6342C
:1002E000B207E1F70E9460180C941A1E0C940000EB
:1002F000089580917A01811110C08DEE0E94B20B99
:100300008EEE0E94B20B0E94781690937901809332
:10031000780181E080937A0108958091780190912D
:1003200079010E94901681369A4E10F010927A014F
:100330000895892B39F4FB018281882329F081E01B
:1003400080937B0181E0089510927B01FBCF81E0D7
:1003500008950C94990108950C94AB011F93CF93C9
:10036000DF9300D000D00F92CDB7DEB749835A8318
:100370006B833091A20189819A8131111DC066235E
:10038000B9F02223A9F00E941813182F682F898131
:100390009A810E94C91269817A81812F0F900F90F2
:1003A0000F900F900F90DF91CF911F910C947002DE
:1003B0000E94F312182FEFCF0E94181369817A81DF
:1003C000EDCFFC01262F40815181628173818481B0
:1003D0000C94AE01CF93DF93EC0160E00E94E10149
:1003E000BE01DF91CF910C94AC010E9490040C945B
:1003F000B4040C94B60408950E94330E0E94FB01CD
:100400002FEF84E39CE0215080409040E1F700C052
:1004100000000C94C3160F931F93CF93DF938C01AE
:1004200061E00E94E101EC01B8010E94A90188236A
:10043000A9F1B801CE010E943808882379F1B801EA
:10044000CE010E948A08882349F1B801CE010E949A
:10045000AD09882319F1F8018281882361F0CB3539
:10046000FDE5DF0721F170F4C115ECE5DE07A1F031
:10047000CF3DDC45C9F0C801DF91CF911F910F91AD
:100480000C94A701CC358DE5D807A1F0CD35DD451D
:1004900091F70E94BF13EFCF0E94FC0180E0DF9133
:1004A000CF911F910F9108950E943815F7CF0E94A8
:1004B000C813E1CF0E94CB13DECF08950C945D02E8
:1004C00081E008950C946002CF93C82F0E945E02D1
:1004D0008C2FCF910C94620290E080E008950895F3
:1004E000272F260F3327331FF901E80FF11DEE0FD9
:1004F000FF1FE455FF4F859194910895FC01EE0F85
:10050000FF1FE255FF4F859194910895CF93DF939C
:100510000E9470020E949B03EC01811520E5920766
:1005200008F042C0811530E4930708F0BDC0883E52
:10053000910528F5803E910508F09DC0883A910507
:1005400088F4853A910508F08FC08130910509F44F
:1005500092C0009709F48FC0049708F08CC0D0E0D7
:10056000C0E089C08F3B910508F489C0805C910987
:10057000C03CD105A0F30E947E02EC017CC0811535
:10058000904250F4C11581E0D80708F074C0CD3E08
:10059000D10528F3D0656FC0C11590E3D90708F0E5
:1005A00079C0CE019F70E7CF811525E5920758F5F8
:1005B000811534E5930708F0A6C0811542E594073C
:1005C00050F4C11581E5D80708F471C0DC2FCC27A1
:1005D000C16FD06A50C0982F969596959E01237052
:1005E0003327C115D34508F07FC0C1E0D0E002C079
:1005F000CC0FDD1F2A95E2F720E2929FC001112463
:10060000C82BD92B6FC0C11589E5D807A8F4C1152F
:1006100098E5D90708F07CC0C11526E5D20708F097
:100620009ECF8C2F0E943204C82FD0E0DC2FCC2725
:10063000CC27DF71D0621FC0C1153AE5D30708F49B
:100640006CC0CE0190568115904208F088CF8D2F56
:100650008F710E94320490E0982F882788279F711D
:100660009C012C2BE901E6CFC55AD0E0CF5BDE4FD1
:10067000C881D0E0D064CE01DF91CF910895C85AEF
:10068000D0E0CC0FDD1FCD5EDE4F0990D881C02DAC
:10069000D464F1CFCE019927D3FF03C0EC01D86C0D
:1006A000EACFEC01D06CE7CFDF70D06AE4CFCE01A7
:1006B000E4E096958795EA95E1F783702C2F2695CF
:1006C0002695237090E2299F90011124382B8C2FBE
:1006D0008370C1E0D0E002C0CC0FDD1F8A95E2F745
:1006E000C22BD32BDC68C7CFC1E0D0E002C0CC0F57
:1006F000DD1F2A95E2F730E2939FC0011124C82B39
:10070000D92BDA68B8CFD82FCC27C46FD06AB3CF33
:10071000DC2FCC27C06FD06AAECF8C2F8F700E9499
:10072000320434E0D695C7953A95E1F7CF709C2F07
:10073000EC01D069A0CF82389105B1F1B0F48133DA
:10074000910509F475C048F48932910509F469C02E
:100750008A32910509F473C008958533910509F42F
:1007600059C08933910501F10895833E9105A9F19E
:1007700038F4803E9105F9F0823E910549F10895E3
:10078000863E9105A9F1873E9105C9F1843E910508
:1007900019F52091320221FF1FC08091310284FDA2
:1007A00014C087EE90E00895209131022370A1F0EB
:1007B00080EE90E008952091310220FD47C03091F5
:1007C000320230FF09C024FF44C090E080E004C042
:1007D0002091310222FDF7CF08952091310222FDB0
:1007E0003BC03091320230FDE3CF24FFF5CFEDCF97
:1007F0002091310223FFF0CF24FDE7CFD2CF20910B
:10080000310223FD2CC03091320231FFEECF84EE55
:1008100090E008952091310225FFDECF89E290E03B
:1008200008952091310225FFD7CF85E390E0089508
:100830002091310226FFD0CF8AE290E008952091E6
:10084000310226FFC9CF81E390E0089589E390E06B
:10085000089583EE90E0089582EE90E0089586EE8C
:1008600090E008959091310292FF06C0282F2871E0
:100870002830F9F4877F846093FF06C0282F287101
:100880002831F1F4877E84612091320220FF06C076
:10089000382F38713830D9F4877F816021FF06C046
:1008A000282F28712831D1F4877E816194FD877EBD
:1008B0000895282F24712430F9F68B7F8860DCCFCF
:1008C000282F2471243101F78B7E8861DDCF382FEA
:1008D0003171313019F78E7F8860E0CF282F217178
:1008E000213121F78E7E8861E1CF0C948D140E9416
:1008F000ED042FEF86E791E0215080409040E1F732
:1009000000C000000E94ED0480E00E94B80480FF57
:1009100004C00E9475040C94C31608950C947704C7
:100920000E949314811102C00E9438150E949E14E7
:1009300080930D020E94A61490933202809331029C
:100940000E948E040E94A214682F70E090E080E064
:100950000E94CB116091E0017091E1018091E20170
:100960009091E3010C9405120C9478010C94790198
:10097000E82FF0E0EC5CFD4F80810895089580EA57
:100980008A95F1F7089500C008950C94BF04F89477
:10099000E82FE295EF70F0E031A1282F2F7081E071
:1009A00090E001C0880F2A95EAF7982F909593233D
:1009B00091A392A1892B82A37894089585E30E9444
:1009C000C70487E90E94C7041092330210923402D0
:1009D00081E00E941B050C94F5011F93CF93DF93D8
:1009E000F894259A2D9878940E94C304C9B1D0E058
:1009F000CC0FCD2FCC1FDD0B81E0C82785E30E94F3
:100A0000C7040E94C50480913302C81791F0C093B7
:100A10003302C1E02C2F41E064E372E083E392E013
:100A20000E941C050E94F9018C2FDF91CF911F912C
:100A30000895C0E0EFCF0895FF920F931F93CF93D7
:100A4000DF93F82E092F162FD72FC42F222349F01A
:100A500081E080937E010E94781690937D018093BF
:100A60007C0180917E018823A1F080917C0190918E
:100A70007D010E949016069760F0EF2DF02FA12FB8
:100A8000BD2FCE0FDF2FD11DEC17FD0741F41092C3
:100A90007E01DF91CF911F910F91FF900895819179
:100AA0008D93F2CF8091870180FF0CC0609104018B
:100AB00070E075956795759567956115710549F1B4
:100AC000862F089581FF06C06091040170E075953E
:100AD0006795F3CF6091040182FD0BC09091860170
:100AE0009923A1F060917F0180910401961738F05D
:100AF000682F70E06038710500F38FE70895899FD3
:100B0000C001112470E00E94AA1DF4CF61E070E0E2
:100B1000D7CF81E008958091870180FF0CC060915C
:100B2000010170E07595679575956795611571057B
:100B300049F1862F089581FF06C06091010170E0A0
:100B400075956795F3CF6091010182FD0BC090917F
:100B500085019923A1F06091000180910101961710
:100B600038F0682F70E06038710500F38FE7089562
:100B7000899FC001112470E00E94AA1DF4CF61E09A
:100B800070E0D7CF81E008958D3E31F40E94520588
:100B9000819580938B0108958E3E19F40E94520531
:100BA000F8CF8F3E31F40E945205819580938A01DF
:100BB0000895803F19F40E945205F8CF893F29F427
:100BC0000E948B0580938C0108958A3F21F40E9436
:100BD0008B058195F7CF8B3F31F40E948B05819572
:100BE00080938D0108958C3F19F40E948B05F8CFF6
:100BF0009FE0980F983070F4815F990B21E030E00E
:100C000001C0220F8A95EAF780918901822B809397
:100C1000890108958D3F31F480918701816080932F
:100C2000870108958E3F21F4809187018260F7CF7C
:100C30008F3FB9F7809187018460F1CF40918A019D
:100C40008D3E59F480918B0187FF0DC010928B016E
:100C500041110BC01092860108C08E3E81F4809134
:100C60008B0118169CF3442381F080918C019091A4
:100C70008D01892B09F05AC01092850108958F3E8D
:100C800049F447FFF0CF10928A0180918B018111C6
:100C9000ECCFE0CF803F19F41416ACF3E4CF909181
:100CA0008C01893F29F41916F4F610928C01DBCFE0
:100CB0008A3F19F497FFD7CFF8CF90918D018B3FE2
:100CC00029F497FFD0CF10928D01CDCF8C3F19F42E
:100CD0001916CCF3C8CF9FE0980F983090F4815F3D
:100CE000990B21E030E0B90102C0660F771F8A95A9
:100CF000E2F7CB0180959091890189238093890146
:100D0000B2CF8D3F31F4809187018E7F8093870130
:100D1000AACF8E3F21F4809187018D7FF7CF8F3F3F
:100D200009F0A1CF809187018B7FF0CF08950E94B9
:100D300078169C0190918A0180918B01982B21F06B
:100D4000309384012093830190918C0180918D01D7
:100D5000982B21F0309382012093810188E891E063
:100D60000C94020AEF92FF920F931F93CF93DF939D
:100D700000D000D000D0CDB7DEB786E0E8E8F1E0E3
:100D8000DE01119601900D928A95E1F7E0908A01BB
:100D9000F0908B0100918C0110918D0110928A01CD
:100DA00010928B0110928C0110928D018E2D8F2943
:100DB00091F080918301909184010E949016AC0182
:100DC00090918601992309F43FC080910501841711
:100DD000150608F447C0802F812B91F08091810186
:100DE000909182010E949016AC0190918501992307
:100DF00009F477C0809102018417150608F47FC0BA
:100E000080918A0190918B01892B90918C01892B83
:100E100090918D01892B11F00E94970686E0FE01CA
:100E20003196A8E8B1E001900D928A95E1F72696F7
:100E30000FB6F894DEBF0FBECDBFDF91CF911F91EB
:100E40000F91FF90EF900895209180018AE0289FF4
:100E5000900111242417350708F0BDCF9F5F9093B0
:100E6000860102C09F3FD1F7EE2059F00E94520543
:100E70009FEF1E140CF491E0899F802D1124809324
:100E80008A01FF2059F00E9452059FEF1F140CF4B5
:100E900091E0899F802D112480938B0130918A01EC
:100EA000332309F498CF20918B01222309F493CFA7
:100EB00045EB3403C0011124992359F090938A0122
:100EC00045EB240390011124332339F030938B0137
:100ED00082CF81E080938A01F3CF81E080938B0100
:100EE0007ACF209103018AE0289F900111242417D2
:100EF000350708F085CF9F5F9093850102C09F3F23
:100F0000D1F7002359F00E948B059FEF10160CF4C7
:100F100091E0899F802D112480938C01112359F039
:100F20000E948B059FEF11160CF491E0899F802D94
:100F3000112480938D0130918C01332309F460CF0B
:100F400020918D01222309F45BCF45EB3403C001CE
:100F50001124992359F090938C0145EB24039001BF
:100F60001124332339F030938D014ACF81E08093EF
:100F70008C01F3CF81E080938D0142CF86E0E8E8D9
:100F8000F1E0DF011D928A95E9F710928601109237
:100F900085011092870108950F931F93CF93DF93DC
:100FA000C42FD22FFC0182818823C9F04093900185
:100FB0000E94781690938F0180938E0180E28C0FAF
:100FC000883008F050C0C77081E001C0880FCA9512
:100FD000EAF7DF91CF911F910F910C94BA0B10910A
:100FE0009001141335C080918E0190918F010E9461
:100FF0009016883C910560F5C0E2CD0F1D17B9F041
:1010000080E2810F883040F4177081E001C0880FC2
:101010001A95EAF70E94C10BC83048F481E09D2F71
:10102000977001C0880F9A95EAF70E94BA0B802F3B
:101030000E94B20BC830B8F4D77081E001C0880FAD
:10104000DA95EAF7DF91CF911F910F910C94C10BC4
:1010500080E28C0F883038F4C77081E001C0880FBF
:10106000CA95EAF7EFCFDF91CF911F910F910895C5
:101070000F939C01CB01243F4CE5340759F1A8F4B0
:10108000293DFCE53F0701F12A3D4CE53407D1F14C
:10109000283D3C4591F406E221EE41EE68ED7CE509
:1010A0000E94CC0780E00F910895263FFCE53F07A2
:1010B000E9F0B0F0273F3C45F9F0FC01828188233C
:1010C00039F110929001EFCF07E225EE45EE69ED80
:1010D0007CE5E6CF06E221EE40EE64EF7CE5E0CF72
:1010E00007E225EE44EE65EF7CE5DACF06E221EE7D
:1010F00042EE66EF7CE5D4CF07E225EE46EE67EFE1
:101100007CE5CECF08E221E045EE6AED7CE5C8CF74
:1011100081E0C9CFCF93DF93EC01FB01828188236B
:1011200009F419C1C230FCE5DF07C0F1C6319CE506
:10113000D90730F09E012B5F3C452930310570F511
:101140000E94A6149093320280933102C031ECE5E4
:10115000DE0709F4CFC008F05BC0C8308CE5D807C3
:1011600009F4B6C088F5C430ECE5DE0709F4A8C080
:10117000C0F4C2308CE5D80709F49CC080913102DC
:101180008260C330DC4509F498C0809131029091AF
:1011900032020E94B4140E94330E80E0DF91CF919E
:1011A0000895809131028061C630ECE5DE0709F4D4
:1011B00084C0809131028860C730DC4508F47DC06E
:1011C00080913102806279C0CC308CE5D80709F477
:1011D00089C070F4809131028C60CA30ECE5DE0782
:1011E00009F46BC008F478C0809131028E7F65C02D
:1011F000CE308CE5D80709F479C0809131028B7F1D
:10120000CF30DC4508F459C0809131028F7E55C043
:10121000CC3FECE5DE0709F457C030F5C3318CE56F
:10122000D80709F46FC078F4C131ECE5DE0709F4A2
:1012300065C0C231DC4509F0A8CF0E94330E809111
:1012400031028F773AC0C5318CE5D80709F462C006
:1012500008F476C0809132028160CB3FDC4509F012
:1012600094CF8093320291CFC115FDE5DF0709F4D9
:101270004DC088F4809132028D7FCE3F9CE5D90726
:1012800081F3809132028E7FCF3FDC4550F3809115
:1012900032028360E6CFC230FDE5DF0709F459C0B2
:1012A00008F444C080E0C330DD4509F06ECF0E94F1
:1012B0003A156BCF8091310281608093310265CF06
:1012C000809131028460F9CF809132028260C9CF6F
:1012D000809131028064F1CF0E94330E80913102FF
:1012E0008068EBCF809131028D7FE7CF8091310212
:1012F000877FE3CF809131028F7DDFCF80913102F4
:101300008F7BDBCF80913102837FD7CF80913202F8
:101310008C7FA7CF8091310282FB992790F921E041
:10132000922790FB82F990FB83F9C7CF809132021C
:10133000982F909591708E7F892B90FB81F991CF9A
:101340000E94330E90913102892F97FB87F98058C4
:10135000B4CF81E0ACCF81E021CFCF93DF93EB011D
:1013600086319C4511F50E94CE139A81992399F0FC
:101370008A7A91E009F490E090939101811109C07B
:1013800089E20E9488130E941E1480E0DF91CF91B1
:10139000089585E3F6CF80919101811104C089E21F
:1013A0000E948F13F0CF85E3FBCF81E0EFCF9093C6
:1013B0009701809396010895E0919601F09197012D
:1013C000309721F00190F081E02D099480E008959C
:1013D000E0919601F0919701309799F020911201D8
:1013E000222359F02091310227FF07C0DC012C9104
:1013F00011962C93119725E02C930280F381E02D18
:1014000009940895E0919601F0919701309739F091
:1014100022E0DC012C930480F581E02D09940895ED
:1014200020919401309195012817390771F090931C
:10143000950180939401E0919601F0919701309786
:1014400021F00680F781E02D099408952091920102
:10145000309193012817390771F09093930180938D
:101460009201E0919601F0919701309721F000846C
:10147000F185E02D099408950E94841660939E01E1
:1014800070939F018093A0019093A10160939A01B2
:1014900070939B0180939C0190939D01089585B763
:1014A000806885BF85B7806885BF089508950895D1
:1014B0000C94560A08950C945A0A0E944F0A8BE81D
:1014C00094E10E94E7160E94570A0C94580A81E0A2
:1014D00008950C94670A089508950E946B0A0C946D
:1014E0006C0A0E946F160E94DE040C945B0A0F9334
:1014F0001F93CF93DF93CDB7DEB72A970FB6F8943B
:10150000DEBF0FBECDBF0E94ED0481110E943C0AD8
:1015100080E00E94B804182F80919901082F0127BC
:10152000811739F080910D0281FD0E94BE0400FDFB
:1015300028C08FEF89838A831B820E94781681607E
:10154000782F9D838C8349815A816B818D810E9484
:10155000E70A0E94B2060E94DC099091980189175F
:1015600059F10E94DC09809398012A960FB6F894ED
:10157000DEBF0FBECDBFDF91CF911F910F910C94B5
:1015800064020E94690A882381F01E821F82117002
:1015900018870E9478168160782F9A8789874E81F4
:1015A0005F8168858A850E94E70A8091990191E0B0
:1015B000892780939901CDCF2A960FB6F894DEBF84
:1015C0000FBECDBFDF91CF911F910F910895DF9294
:1015D000EF92FF920F931F93CF93DF93CDB7DEB7B8
:1015E0002B970FB6F894DEBF0FBECDBF7A878B87DF
:1015F000F42E052F162FE72ED82E61110E94EE1320
:101600001E821D827E2DEC82DD824F2D502F612F98
:101610008D2D9E812B960FB6F894DEBF0FBECDBFE9
:10162000DF91CF911F910F91FF90EF90DF900C947D
:10163000A910FC01808191810C945A13CF93C82F7B
:10164000882309F447C08CEF8C0F813AA0F46C2FEB
:1016500080910601909107010E945315882329F07B
:101660008C2F0E948F130E941E148C2F0E948813AF
:10167000CF910C941E1480E28C0F883048F4C77010
:1016800081E001C0880FCA95EAF70E94D113F0CF1C
:10169000EBE5EC0FE33040F4F0E0EE58FE4F8081D4
:1016A00090E0CF910C94100AE8E5EC0FE73150F48C
:1016B000F0E0EE0FFF1FEC5BFE4F80819181CF9138
:1016C0000C94260ACD3E30F08C2F0E94C405CF9199
:1016D0000C949706CF910895882361F19CEF980FA1
:1016E000913A20F40E948F130C941E1490E2980FEC
:1016F000983050F4877091E001C0990F8A95EAF70D
:10170000892F0E94D713F0CF9BE5980F933020F4D8
:1017100090E080E00C94100A98E5980F973120F43F
:1017200090E080E00C94260A8D3E20F00E941E0678
:101730000C94970608951F93CF93DF93182FEB0116
:101740000E941E0B209731F4812FDF91CF911F91C2
:101750000C946C0B8FE99FE00197F1F700C000003B
:101760002197F0CF70E060E0893311F460E570E01C
:101770000C949B0B882321F00E94D1130C941E140F
:101780000895882321F00E94D7130C941E14089505
:10179000BF92CF92DF92EF92FF920F931F93CF935E
:1017A000DF936C01D62FC72FFC01128105810295B2
:1017B0000F700E94A613E82E8823A1F0E12E1123BA
:1017C00089F08C2F807F803429F080E28D0FE12C0E
:1017D000883040F082E00E946F140E94A61391E0CE
:1017E000E82EE926BC2EB2949FE0B922EB2DF0E062
:1017F000E45EF14E0C94BE1D0C2F0F70C07F11F0F3
:101800000295007F1123A9F0002359F080E28D0F8B
:10181000883010F0D11109C0802F0E94D1130E948E
:101820001E148D2F0E941E0B14C0802F0E94E113E6
:10183000F6CF8D2F0E946C0B002359F080E28D0FA4
:10184000883010F0D1112CC0802F0E94D7130E9435
:101850001E142B2D2850330B2430310520F40E9408
:10186000DC090E946402EE2009F49EC10E94A213CA
:1018700080FD9AC1F60112820E949C130E942D12D3
:10188000C6010E94F50D0E949C13DF91CF911F911C
:101890000F91FF90EF90DF90CF90BF900C944E127D
:1018A000802F0E94E713D3CFFC2FFF70FF2EC07F45
:1018B000C03219F0F29480EFF822DD2369F0D130C4
:1018C00049F1112391F1002351F1F601858180FF47
:1018D000A8CF8F70858323C0112381F0011106C02A
:1018E0000E9401148F290E94BA0BB3CF0130C1F7B7
:1018F0000E9401148F290E940714ABCF011106C06A
:101900000E9414148F2D0E94C10BA3CF013009F443
:10191000A0CFF6CF112329F0063008F09ACF8F2DF3
:10192000E2CF053008F095CFEDCF002359F3D9333E
:1019300049F4FFEF27EE33E0F15020403040E1F76B
:1019400000C000008D2F0E946C0B83CF8C2F8695DA
:101950008695837069F0813009F07BCF8D2F9C2FA5
:101960009370111102C090E080E00E94260A71CFAE
:101970008D2F9C2F9370111102C090E080E00E9487
:10198000100A67CF8D2F112329F00E94C4050E94F1
:1019900097065FCF0E941E06FACF8C2F837009F046
:1019A00041C0111156CF4D2F429546954770440FB7
:1019B000440F0D2F0F7010E030E020E0042E04C023
:1019C000000F111F221F331F0A94D2F760E070E04E
:1019D000CB01D4FF0FC06FE070E080E090E004C066
:1019E000660F771F881F991F4A95D2F760957095EB
:1019F00080959095C695C695C370602B712B822BF0
:101A0000932BC23049F058F4C13019F00E94DF1115
:101A100020CF0E94CD111DCF0E94F1111ACF0E943C
:101A2000CB1117CF8695112311F08C2F817088234D
:101A300009F40FCF4D2F429546954770440F440F40
:101A40000D2F0F7010E030E020E0042E04C0000FD6
:101A5000111F221F331F0A94D2F760E070E0CB0100
:101A6000D4FF0FC06FE070E080E090E004C0660F2C
:101A7000771F881F991F4A95D2F7609570958095BA
:101A80009095C695C695C370602B712B822B932BB6
:101A9000C23049F058F4C13019F00E94A412D9CED6
:101AA0000E949212D6CE0E94B612D3CE0E94071286
:101AB000D0CECF70112329F08C2F0E942D128D2FA4
:101AC00012CF8D2F0E94C10B8C2F0E944E12C1CEBF
:101AD000D23F89F160F4D03FC9F0D13F29F1112301
:101AE00009F442C001119DCE8C2F8F7121C0D33FCC
:101AF00039F1D43FA1F7112369F1CF718C2F0E94E6
:101B00002D1263E08C2F0E945414A3CE112341F0B8
:101B1000053008F09ECE8C2F8F710E94711299CEE5
:101B2000063008F096CEF7CF8C2F8F71112369F213
:101B30000E942D128ECE8C2F8F711123C9F3C5CF29
:101B4000112329F08C2F8F710E94181282CE0E94CF
:101B500013127FCE81E00E946F14023008F479CE18
:101B600082E00E946F1475CE002359F0D93309F03A
:101B7000E9CE8FEF97EEE3E081509040E040E1F74F
:101B8000DFCE8C2F8F71A1CF4C2F4F706D2FC601E0
:101B90000E946C020E9443115CCE4C2F4F706D2F3F
:101BA000C6010E946F0255CEDF91CF911F910F9118
:101BB000FF90EF90DF90CF90BF9008950F931F9309
:101BC000CF93DF93EC01688179818A810E9464134D
:101BD0008C010E94C8120E94CA11B801CE01DF9187
:101BE000CF911F910F910C94C80BCF93DF93EC0111
:101BF0008B819C81892B29F08881998189238F3F52
:101C000059F4DF91CF910895CE010E94DE0DCE01EF
:101C1000DF91CF910C94EA01CE010E940B02811159
:101C2000F3CF0E94A613882361F38A81882349F3A6
:101C300082E0DF91CF910C946F1490E080E00E94DD
:101C4000100A90E080E00E94260A0E94EE130E9493
:101C5000FE130E941E140E94BE070C9497060E9459
:101C600096130C941D0E0E94DE130C942F0EE92F78
:101C7000E295EF70E250EE3070F4F0E0E45DF14E8A
:101C80000C94BE1D803F19F020F4883E20F481E0C2
:101C90000895843FE1F380E00895883EC0F3813FDA
:101CA000D1F7F5CF93FB882780F908950E945A1346
:101CB0000C94370ECF93DF9300D000D00F92CDB7A6
:101CC000DEB70F900F900F900F900F90DF91CF9194
:101CD0000895CF93DF9300D000D000D0CDB7DEB70A
:101CE00026960FB6F894DEBF0FBECDBFDF91CF9121
:101CF00008951F93CF93DF93C091A30116E08091C5
:101D0000A4018C1304C0DF91CF911F910895D0E0FE
:101D10001C9FF0011D9FF00D1124EB55FE4F4081DB
:101D2000518162817381848195810E94690E21961F
:101D3000C770E5CF4091D5015091D6016091D70190
:101D40007091D8018091D9019091DA010C94690EBB
:101D50001F93CF93DF938091DA01807FA9F4809164
:101D6000D701882389F08091A301C091A4016091DB
:101D7000D5017091D601A091D801B091D901D62F8B
:101D8000D72316E0C81304C0DF91CF911F910895A7
:101D900090E0109711F0DF3F19F401968770F2CFB1
:101DA000189F9001199F300D1124F901EB55FE4F3A
:101DB00041814713F2CF40814613EFCF4281411159
:101DC000ECCF438154814A1B5B0B483C510528F7FB
:101DD0008091DA018F7080618093DA01F901E65514
:101DE000FE4F80818F708061808385ED91E00E943D
:101DF000F50DDF91CF911F910C94790EAF92BF92A8
:101E0000CF92DF92EF92FF920F931F93CF93DF93C6
:101E1000CDB7DEB761970FB6F894DEBF0FBECDBF6A
:101E20008C0185E0F801DE011D9601900D928A95E6
:101E3000E1F7F80140815181E28085EDC82E81E013
:101E4000D82E6091D8017091D9016115710509F4FE
:101E500061C19091D5012091D601892F82238F3FB6
:101E600009F458C1A380B480F090D701F501E61BB6
:101E7000F70BFF2009F4FCC08091DA01382F307F86
:101E8000E83CF10508F0B2C0311179C0FE2C2513F1
:101E900023C0941321C0E1101FC08F708061809314
:101EA000DA010E949A0EC6010E94F50D8091DA01B6
:101EB000F80185838F2D61960FB6F894DEBF0FBEB3
:101EC000CDBFDF91CF911F910F91FF90EF90DF90E9
:101ED000CF90BF90AF900895AB2829F0842F852331
:101EE0008F3F09F033C180E0F82FF170DF2E80FFC3
:101EF0003CC08091A3012091A40136E0821315C05B
:101F00004D875E878D859E850E945A13292F2295C5
:101F10002F702230F0F0243018F59F70F1F0F801A6
:101F20009581907FD1F4D12C1EC090E0389FF001B4
:101F3000399FF00D1124EB55FE4F6181651306C0EA
:101F40006081641303C062816E110FC001968770B7
:101F5000D5CF9F7011F0882331F3805E883018F35D
:101F6000C8010E94F50DFD2CA5CFEE2009F4A2CFEB
:101F70008091DA0181608093DA01F12C9BCF2513E7
:101F800006C0941304C0F801EE2009F48DC04D87FB
:101F90005E878D859E850E94560E882319F1EE205E
:101FA00009F18091DA01803270F02091D5013091F1
:101FB000D60138872F831986BB86AA868C87CE01E7
:101FC00007960E94F50D86E0F801A5EDB1E00190BD
:101FD0000D928A95E1F70E94A80E0E949A0EFF24A6
:101FE000F39468CFC8010E94F50DF9CF311113C0E9
:101FF0007A2DB98AA88A6E2D89890E945A0E85ED9C
:1020000091E00E94F50D86E0F60111928A95E9F7BC
:102010000E949A0EB2CF25130FC094130DC0E11089
:102020000BC0F8018583C8010E94F50D86E0F6011A
:1020300011928A95E9F73ECF4D875E878D859E8503
:102040000E94560E882371F2EE2061F28091DA012F
:10205000803208F4B8CF2091D5013091D6013A836F
:1020600029831B82BD82AC828E83CE010196A9CFCB
:10207000E83CF10508F041C0FE2CEE2009F4B2CF97
:1020800025132AC0941328C08091DA0180FD1BC05B
:10209000982F907FC1F0F8018583903F31F0982F01
:1020A000907F905F8F70892B8583C8010E94F50D0A
:1020B00086E0F801A5EDB1E001900D928A95E1F777
:1020C0000E949A0EF7CE86E0F801A5EDB1E00190EE
:1020D0000D928A95E1F7EECE4D875E878D859E85C0
:1020E0000E94560E81116FCF8091DA01816080933A
:1020F000DA01C8010E94F50DDDCE7A2DB98AA88AD1
:102100006E2D89890E945A0E86E0F60111928A95F9
:10211000E9F7D6CFEE2009F465CF4D875E878D8530
:102120009E850E94560EF82E882309F45BCF86E028
:10213000F801A5EDB1E001900D928A95E1F785EDEA
:1021400091E00E94190B0E94A80EBACF81E08E2563
:10215000CBCE1F93CF93DF93CDB7DEB72C970FB6BF
:10216000F894DEBF0FBECDBF4F83588769877A874B
:102170008B879C87CE0107960E94FE0E882369F00C
:102180008A859B85892B39F04F815885842F85233B
:102190008F3F09F071C016E05FC086E0FE01379600
:1021A000DE01119601900D928A95E1F78A859B8553
:1021B000892B89F38F81988589238F3F61F3209143
:1021C000A40130E0C9010196877099274091A301CD
:1021D0004817190671F40E94330E1092A401109250
:1021E000A30186E0E5EDF1E0DF011D928A95E9F7B4
:1021F000D2CF96E0929FD001939FB00D1124AB55A2
:10220000BE4FFE01319601900D929A95E1F78093B1
:10221000A4010E94790EBFCF819FC00111248B556C
:102220009E4F0E94FE0E8823E9F0E091A3011E9FBD
:10223000F0011124EB55FE4F408151816281738181
:10224000848195810E94690E8091A30190E001969E
:10225000877099278093A3018091A3019091A40195
:102260008913DACF2C960FB6F894DEBF0FBECDBF20
:10227000DF91CF911F91089569857A858B859C8523
:102280000E94690E88CFEF92FF920F931F93CF9316
:10229000DF938C01892B81F0F12CEE24E394E8018B
:1022A0002196F8018491843770F4843008F05FC07F
:1022B0008130B1F08230A1F1DF91CF911F910F9168
:1022C000FF90EF900895853709F44CC008F43DC0A5
:1022D0009CE7980F903780F78F770E946C0B49C06E
:1022E0000E5F1F4FFE01849190E2980F983060F4CA
:1022F0008770FE2D01C0FF0F8A95EAF78F2F0E948D
:10230000F1130E941E1402C00E941E0B8F2D8150DB
:1023100030F2EFE9FFE03197F1F700C00000F7CFAE
:102320000E5F1F4FFE01849190E2980F983050F499
:102330008770FE2D01C0FF0F8A95EAF78F2F0E944C
:10234000F713DFCF0E946C0BE1CF0E5F1F4FFE0132
:10235000C491C150D8F28FE99FE00197F1F700C016
:102360000000F7CF0E5F1F4FFE01F490CFCF0E9409
:102370001E0B8E01CBCF08950C94BB110E94BC1193
:102380006093E4017093E5018093E6019093E70187
:102390000C941D0E08950C94BE110F931F93009181
:1023A000E4011091E5012091E6013091E701602BF5
:1023B000712B822B932B1F910F910C94BE110F93B5
:1023C0001F930091E4011091E5012091E601309105
:1023D000E70160237123822393231F910F910C94B3
:1023E000BE110F931F930091E4011091E50120911C
:1023F000E6013091E70160277127822793271F911B
:102400000F910C94BE110C94BB110C9403120E94FA
:1024100005126093E0017093E1018093E2019093D3
:10242000E3010C941D0E60E070E0CB010C940712E8
:102430000F931F9341E050E060E070E08A019B0140
:1024400004C0000F111F221F331F8A95D2F7C90144
:10245000B8011F910F910C9407120F931F9341E045
:1024600050E060E070E004C0440F551F661F771F06
:102470008A95D2F78091E0019091E101A091E2016B
:10248000B091E3018A019B01082B192B2A2B3B2BCE
:10249000C901B8011F910F910C9407120F931F935C
:1024A00041E050E060E070E004C0440F551F661F3B
:1024B000771F8A95D2F7CB01BA0160957095809508
:1024C00090950091E0011091E1012091E20130919D
:1024D000E30160237123822393231F910F910C94B6
:1024E00007120F931F9341E050E060E070E004C0DA
:1024F000440F551F661F771F8A95D2F78091E00120
:102500009091E101A091E201B091E3018A019B0168
:10251000082719272A273B27C901B8011F910F91C6
:102520000C9407120F931F930091E0011091E101A9
:102530002091E2013091E301602B712B822B932BD0
:102540001F910F910C9407120F931F930091E001BC
:102550001091E1012091E2013091E30160237123A8
:10256000822393231F910F910C9407120F931F93B3
:102570000091E0011091E1012091E2013091E3012D
:1025800060277127822793271F910F910C940712C0
:102590000895980F892F877041E001C0440F8A95F4
:1025A000EAF796959695969585E0989FF001112407
:1025B000E552FE4F30E020E070E05191DF011197CD
:1025C000CB01022E02C0969587950A94E2F781709E
:1025D00081958527842385278C932F5F3F4F253056
:1025E000310559F70895980F692F6770969596955C
:1025F000969585E0989FF0011124E552FE4F50E03A
:1026000040E080E0219130E0062E02C0369527950B
:102610000A94E2F721703327042E01C0220F0A9496
:10262000EAF7822B4F5F5F4F4530510559F7089508
:10263000BF92CF92DF92EF92FF920F931F93CF93AF
:10264000DF938C01C090E001D090E101E090E201C5
:10265000F090E3018091E4019091E501A091E60101
:10266000B091E701C82AD92AEA2AFB2ACFE1D0E0B3
:10267000BC2ED701C6010C2E04C0B695A795979520
:1026800087950A94D2F780FD0EC0219788F7B12C68
:102690008B2DDF91CF911F910F91FF90EF90DF90E5
:1026A000CF90BF900895B8018C2F0E9486020197A9
:1026B00061F3EECFCF93DF93EC010E941813BE01BC
:1026C000DF91CF910C9486021F93CF93DF93EB01A0
:1026D0009091A201992331F0CB01DF91CF911F910D
:1026E0000C945A13882379F0CB010E941813182FE9
:1026F000682FCE010E94C912BE01812FDF91CF91B8
:102700001F910C948602CB010E94F312182FF4CF74
:10271000682F80910601909107010C94D315682FC2
:1027200080910601909107010C94DE1580910601BD
:10273000909107010C94E9158091E80185958595A4
:10274000859508958091E801877008959091E8013A
:10275000977081E009F480E008959091320292FB35
:10276000222720F9281751F080FB92F9909332022A
:1027700080913102909132020C94B41408958091AA
:10278000320282FB882780F991E089270C94AD13EF
:1027900081E00C94AD1380E00C94AD1380910C0299
:1027A000089590910C02892B80930C0208958095D6
:1027B00090910C02982390930C02089510920C02B1
:1027C000089590910B02892B80930B0208958095B8
:1027D00090910B02982390930B02089510920B0294
:1027E000089590910A02892B80930A02089580959A
:1027F00090910A02982390930A02089510920A0277
:1028000008958091E901089508950C94041490911D
:10281000320292FD08C09091E901981721F080934F
:10282000E9010C94051408958091E901882329F0A9
:102830001092E90180E00C9405140895E0910601DE
:10284000F091070180910C028083E0910601F091E4
:102850000701808190910B02892B8083E091060112
:10286000F0910701808190910A02892B80839091D9
:10287000E901992381F0E0910601F091070180813F
:10288000892B808380910601909107010E943F155A
:1028900081110E94141480910601909107010C94FB
:1028A000E80908950C9451149091320292FD10C0E1
:1028B00098E0899F90011124622B6093E8010E94A7
:1028C0002D128091E8018595859585950C9452147B
:1028D0000C942D121092E80180E00C945214909107
:1028E000E801809589238093E801282F277039F427
:1028F000282F082E000C330B9217130621F4909109
:10290000320292FF07C08595859585950E944E12EB
:102910000C946A14089580E008956FEF7FEF90E0C3
:1029200080E00C94041E90E080E00E94E01D21E015
:102930008A3E9E4F09F020E0822F089582E090E0C9
:102940000C94D81D83E090E00C94D81DCF9384E0C4
:1029500090E00E94D81DC82F82E290E00E94D81D0E
:10296000982F8C2FCF910895CF93C92F682F84E093
:1029700090E00E94E61D6C2F82E290E0CF910C94D3
:10298000E61DAB01BC018FE090E00C94F81DAB019B
:10299000BC0183E190E00C94F81D60E070E0CB0195
:1029A0000C94C71460E070E0CB010E94C1140C9439
:1029B000CD146AEE7EEF90E080E00E94041E60E09D
:1029C00082E090E00E94E61D60E083E090E00E94DB
:1029D000E61D1092E4011092E5011092E6011092BA
:1029E000E70160E084E090E00E94E61D60E082E2A2
:1029F00090E00E94E61D60E085E090E00E94E61D08
:102A000060E086E090E00E94E61D6FEF87E090E0D6
:102A10000E94E61D40E050E0BA0188E090E00E948C
:102A2000F81D60E08DE090E00E94E61D40E050E07F
:102A3000BA0188E190E00E94F81D60E087E190E033
:102A40000E94E61D40E050E0BA018CE190E00E9457
:102A5000F81D70E060E080E290E00E94041E40E01B
:102A600050E0BA0188E190E00E94F81D0C94D21465
:102A70000C94D914682F8EE090E00C94E61DFC01B4
:102A8000329680911201882321F0809131029EE1DB
:102A900087FF96E080E0915008F408952191222369
:102AA000D1F38F5FF8CF662301F120911201222329
:102AB000F1F02091310227FF1AC0462F4695469526
:102AC00046954E3190F4677021E030E002C0220F4D
:102AD000331F6A95E2F7840F911DFC01828190E01B
:102AE0002823392381E0232B69F480E00895FC0139
:102AF000329608962191261721F0E817F907D1F7A9
:102B0000F4CF81E008959C01FC0132969FEF80E0B4
:102B10004191461751F09F3F19F4411101C0982F80
:102B20008F5F8630A9F79F3F09F40895290F311D63
:102B300097FD3A95F90162830895FC013296089653
:102B40002191261303C0DF0111971C92E817F907A2
:102B5000B9F70895E62FE695E695E695EE3168F427
:102B6000E80FF92FF11D677021E030E001C0220F5E
:102B70006A95EAF78281822B82830895E62FE69593
:102B8000E695E695EE3170F4E80FF92FF11D6770C8
:102B900021E030E001C0220F6A95EAF7209582819A
:102BA00028232283089520911201222329F02091C5
:102BB000310227FD0C94AA150C9483152091120163
:102BC000222329F02091310227FD0C94BE150C948C
:102BD0009D15FC01329680911201882351F080915D
:102BE000310287FF06C08EE1DF011D928A95E9F769
:102BF000089586E0F9CF089508950C94FC1580910E
:102C00003D02843049F10E94FD1580E00E9464027B
:102C100010920E0288E190E020E40FB6F894A89597
:102C2000809360000FBE2093600083B7817F846033
:102C300083BF83B7816083BF7894889583B78E7F85
:102C400083BF0FB6F894A895809160008861809347
:102C50006000109260000FBE089508950E94FB1559
:102C60000E94ED040E942D1680E00E94B80491E0BD
:102C7000811101C090E0892F089508950C943D16AC
:102C80000E94330E0E94DC090E9464020C943E16DE
:102C90001F921FB61F9211248F939F93AF93BF93E0
:102CA00080910E02811113C08091350290913602FD
:102CB000A0913702B09138024196A11DB11D8093B9
:102CC000350290933602A0933702B0933802BF9139
:102CD000AF919F918F911F901FBE1F90189582E01A
:102CE00084BD93E095BD9AEF97BD80936E000895E3
:102CF0002FB7F8948091350290913602A091370257
:102D0000B09138022FBF08952FB7F8946091350223
:102D10007091360280913702909138022FBF08954A
:102D20009C014FB7F8948091350290913602A091A2
:102D30003702B09138024FBF821B930B08957894ED
:102D40001F921FB61F9211248F939F93AF93BF932F
:102D50008091350290913602A0913702B0913802ED
:102D60000196A11DB11D8093350290933602A09368
:102D70003702B0933802BF91AF919F918F911F900E
:102D80001FBE1F90189581E08093E00080E2809341
:102D9000D8001092C9008FE19EE40197F1F700C0BE
:102DA000000087E090EBDC0180934602909347029D
:102DB000A0934802B093490288E19CE00FB6F894D2
:102DC000A895809360000FBE90936000FFCF909312
:102DD000770180937601089580912F020895CF9313
:102DE000DF9300D00F92CDB7DEB790913D029430C3
:102DF00019F589837B836A8382E08093E9008FEFF2
:102E00009091E800815095FD06C095ED9A95F1F7F7
:102E100000008111F5CF8091E80085FF0DC050E0E2
:102E200040E063E070E0CE0101960E9419198091A4
:102E3000E8008E778093E8000F900F900F90DF915D
:102E4000CF910895BC0184E00C94EF16BC0183E09F
:102E50000C94EF169C0182E08093E9009FEF809133
:102E6000E800915085FD06C085ED8A95F1F70000D8
:102E70009111F5CF8091E80085FF0CC050E040E053
:102E800066E070E0C9010E9419198091E8008E7710
:102E90008093E8000895CF93DF93EC0180911201B5
:102EA0008823B1F18091310287FF32C060E282E075
:102EB0008093E9008FEF9091E800815095FD06C066
:102EC00095ED9A95F1F700008111F5CF8091E8001A
:102ED00085FF1BC08091120170E050E040E081113D
:102EE00004C050E040E068E070E0CE010E94191993
:102EF0008091E8008E778093E80080E2FE01AFE0E9
:102F0000B2E001900D928A95E1F7DF91CF9108959B
:102F100068E081E0CDCF80913C02811109C00E9420
:102F2000A91A0E94061B8091E20084608093E2004F
:102F3000089510923C02089508950895089542E07E
:102F400061EC81E00E94251A42E261EC82E00C947F
:102F5000251A80913F02833009F45FC030F481303C
:102F6000C1F1823009F49BC008958A3009F487C00A
:102F70008B3009F46DC0893009F04EC080913E025B
:102F8000813209F049C08091420290914302029738
:102F900008F042C08091E800877F8093E80080912C
:102FA000E80082FF35C09091F3008091F200029713
:102FB00029F48091F1008B7F813021F48091F10020
:102FC00080932F028091E8008B778093E8000C9427
:102FD000591A80913E02813AF9F48091E800877F86
:102FE0008093E8008091420290914302892B61F422
:102FF00060E28FE092E070E00E9468198091E80042
:103000008B778093E800089560E090E080E0F3CF54
:1030100080913D028111C3CF089580913E02813A93
:10302000D9F78091420290914302892BA9F78091B0
:10303000E800877F8093E8008091E80080FFFCCF64
:10304000809112018093F1008091E8008E77BDCFCE
:1030500080913E02813201F78091420290914302B9
:10306000892BD1F68091E800877F8093E8000E9449
:10307000591A80914002809312010C94330E809172
:103080003E02813249F68091E800877F8093E80014
:103090000E94591A809141028093300208958091D4
:1030A0003E02813A09F0B8CF8091E800877F809393
:1030B000E8008091E80080FFFCCF80913002C2CF11
:1030C00084B7877F84BF0FB6F894A895809160007D
:1030D000886180936000109260000FBE80E890E0ED
:1030E0000FB6F89480936100909361000FBE0E9428
:1030F0005D0A0E94A91A0E94061B8091E20084606A
:103100008093E20078940E948F1D0E94710A88E0EB
:1031100091E00E94D70980913D02853099F00E948C
:10312000770A0E946D0AF7CF0E94FF1580913B023B
:10313000882341F00E942E16882321F00E94031953
:103140000E94330E80913D02853071F30E9440163B
:10315000E6CF0C94AB18292F33272330310519F112
:1031600068F42130310509F444C02230310509F4F6
:1031700045C090E080E030E020E025C021323105FC
:1031800049F122323105A9F780E490E02DE132E0E7
:1031900061157105C1F086EB90E027E631E0613002
:1031A000710589F0E6CF99278130910581F000976C
:1031B00029F00297F1F6EEEAF0E002C0E6E1F1E074
:1031C000849190E09F01FA01318320830895E2EE1B
:1031D000F0E0F6CF89E090E02CE231E06115710576
:1031E00091F389E090E025E431E06130710559F315
:1031F000C0CF82E190E025E531E0E5CF8BE390E0C0
:103200002AE131E0E0CF80E189BD82E189BD09B4E6
:1032100000FEFDCF8091D8008F7D8093D8008091F3
:10322000E00082608093E0008091E00081FDFCCFAF
:103230000895AF92BF92CF92DF92FF920F931F93A8
:10324000CF93DF936C01EB018A010E94781AF82E6C
:10325000811123C00115110539F0F8018081918198
:10326000C81BD90BC80ED91EB12CA12C2097A9F0D0
:103270008091E80085FD22C08091E8008E778093E0
:10328000E80001151105A1F0F80180819181A80ED7
:10329000B91EB182A08285E0F82E8F2DDF91CF91EB
:1032A0001F910F91FF90DF90CF90BF90AF90089546
:1032B0000E94781A8823D1F2F82EEFCFF60181917F
:1032C0006F018093F1002197FFEFAF1ABF0ACECFB5
:1032D000FC01809144029091450286179707A0F067
:1032E0006115710529F49091E8009E779093E800AC
:1032F00090E06115710551F4911108C08091E800CA
:1033000082FF34C080E00895BC01F2CF80913D027D
:103310008823C1F18530C1F18091E80083FD30C080
:103320008091E80082FDEACF8091E80080FFE1CF44
:103330008091F3002091F200382F6115710519F08A
:103340002830310558F091E02830310509F090E03F
:103350002091E8002E772093E800CBCF81918093D5
:10336000F100615071092F5F3F4FE7CF80913D021F
:10337000882341F0853041F08091E80083FFBECF83
:1033800081E0089582E0089583E00895FC01809132
:1033900044029091450286179707A0F061157105C8
:1033A00029F48091E8008E778093E80090E0611521
:1033B000710551F4911108C08091E80082FF35C079
:1033C00080E00895BC01F2CF80913D028823C9F1CD
:1033D0008530C9F18091E80083FD31C08091E8001B
:1033E00082FDEACF8091E80080FFE1CF8091F30079
:1033F0002091F200382F6115710519F02830310540
:1034000058F091E02830310509F090E08091E80013
:103410008E778093E800CBCF84918093F100319632
:10342000615071092F5F3F4FE6CF80913D028823A5
:1034300041F0853041F08091E80083FFBDCF81E00D
:10344000089582E0089583E00895982F973028F03A
:103450008F708093E90081E008959093E900242F14
:10346000762F50E0981731F07091EC002091ED002C
:103470005091F00021FD02C09F5FE8CF3091EB003A
:103480003E7F3093EB003091ED003D7F3093ED00B7
:103490003091EB0031603093EB007093EC0020939F
:1034A000ED005093F0002091EE0027FDE5CF80E085
:1034B000089580913E0287FF13C08091E80082FF4B
:1034C00006C08091E8008B778093E80004C080916B
:1034D0003D028111F2CF089580913D028823D9F3F6
:1034E0008091E80080FFF8CF8091E8008E77ECCFE4
:1034F0002091E4003091E50095E6A9012091EC00CF
:10350000822F817020FF06C08091E80080FF06C0F6
:1035100080E008952091E80022FD1AC080913D02CC
:10352000882389F0853089F08091EB0085FD0FC0FC
:103530002091E4003091E50042175307F9F29150D1
:10354000E1F684E0089582E0089583E0089581E043
:1035500008950E94171B0E941F1BE0EEF0E080817F
:1035600081608083E8EDF0E080818F77808319BCF3
:10357000A7EDB0E08C918E7F8C9380818F7E8083CD
:1035800010923C0208950F931F93CF93DF930E94F4
:10359000171B0E941F1BC8EDD0E088818F7788839E
:1035A00088818068888388818F7D888319BC109288
:1035B0003D021092390210923B0210923A0200EE44
:1035C00010E0F80180818B7F80838881816088830F
:1035D00042E060E080E00E94251AE1EEF0E08081A8
:1035E0008E7F8083E2EEF0E0808181608083808145
:1035F00088608083F80180818E7F808388818061EC
:103600008883DF91CF911F910F910895E8EDF0E04D
:1036100080818F7E8083E7EDF0E080818160808310
:1036200084E082BF81E080933C020C94C31AE8EDF1
:10363000F0E080818E7F80831092E20008951092E6
:10364000DA001092E10008951F920F920FB60F92C8
:1036500011242F933F934F935F936F937F938F9397
:103660009F93AF93BF93EF93FF938091E10082FF0D
:103670000BC08091E20082FF07C08091E1008B7F48
:103680008093E1000E948E1D8091DA0080FF19C0B6
:103690008091D80080FF15C08091DA008E7F8093E2
:1036A000DA008091D90080FF96C080E189BD82E177
:1036B00089BD09B400FEFDCF81E080933D020E94E8
:1036C0008B178091E10080FF19C08091E20080FF9C
:1036D00015C08091E2008E7F8093E2008091E2002D
:1036E00080618093E2008091D80080628093D8004E
:1036F00019BC85E080933D020E949D178091E100F6
:1037000084FF2BC08091E20084FF27C080E189BD47
:1037100082E189BD89B5982F917080FFFBCF8091A0
:10372000D8008F7D8093D8008091E1008F7E8093B8
:10373000E1008091E2008F7E8093E2008091E200C0
:1037400081608093E20080913902882309F449C0A6
:1037500084E080933D020E949E178091E10083FFE8
:1037600029C08091E20083FF25C08091E100877F1E
:103770008093E10082E080933D02109239028091B3
:10378000E1008E7F8093E1008091E2008E7F809344
:10379000E2008091E20080618093E20042E060E01C
:1037A00080E00E94251A8091F00088608093F000EC
:1037B0000E949C17FF91EF91BF91AF919F918F91C4
:1037C0007F916F915F914F913F912F910F900FBE1D
:1037D0000F901F90189519BC10923D020E949917E6
:1037E00070CF8091E30087FD93E090933D02B3CFCB
:1037F0001F920F920FB60F9211242F933F934F9366
:103800005F936F937F938F939F93AF93BF93CF9368
:10381000DF93EF93FF93D091E900DF708091EC008C
:10382000C82FC17080FDC0E81092E9008091F000BF
:10383000877F8093F00078940E943C1C1092E900EE
:103840008091F00088608093F000CD2BCF70C09302
:10385000E900FF91EF91DF91CF91BF91AF919F91DF
:103860008F917F916F915F914F913F912F910F9029
:103870000FBE0F901F9018951F93CF93DF93CDB776
:10388000DEB7AA970FB6F894DEBF0FBECDBF8EE3AA
:1038900092E02091F100FC012193CF01F2E0863407
:1038A0009F07B9F70E94A9178091E80083FF1EC106
:1038B00080913E0290913F029A3008F017C1E92FA3
:1038C000F0E0E65CF14E0C94BE1D803899F0823831
:1038D00009F00CC1809142028F70873008F006C158
:1038E0008093E9008091EB0085FB882780F9109296
:1038F000E90006C080913A0290913B0291118260EA
:103900009091E800977F9093E8008093F1001092E7
:10391000F1008091E8008E77E5C0882309F4D3C0D8
:10392000823009F0E3C0809140028111D6C08091BD
:1039300042028F702FEF280F263008F0D7C08093F7
:10394000E9002091EB0020FFC8C0933031F4809152
:10395000EB0080628093EB00C0C09091EB0090611F
:103960009093EB0021E030E001C0220F8A95EAF746
:103970002093EA001092EA008091EB008860EACF81
:103980008111B4C0109140021F778091E3008078CC
:10399000812B8093E3008091E800877F8093E8008B
:1039A0000E94591A8091E80080FFFCCF8091E300CB
:1039B00080688093E30082E0111183E080933D02F0
:1039C00095C08058823008F091C08091400290915B
:1039D00041028C3D23E09207A1F583E08A838AE2CD
:1039E00089834FB7F894DE01139620E03EE051E260
:1039F000E32FF0E050935700E49120FF03C0E295DD
:103A0000EF703F5FEF708E2F90E0EA30C0F0C79606
:103A10008D939D932F5F243159F74FBF8091E8001C
:103A2000877F8093E8006AE270E0CE0101960E94F1
:103A300068198091E8008B778093E80057C0C096A2
:103A4000E7CF6091420270914302AE014F5F5F4F3A
:103A50000E94A918BC01892B09F448C09091E80084
:103A6000977F9093E80089819A810E94C619E1CFDF
:103A70008038E1F58091E800877F8093E8008091AD
:103A800039028093F10045CF811130C090914002FE
:103A9000923060F58091E800877F8093E8009093F2
:103AA00039020E94591A80913902882311F084E06A
:103AB00005C08091E30087FDFACF81E080933D024D
:103AC0000E949F1713C080914002813079F481E0F9
:103AD000933009F080E080933B021092E9008091DE
:103AE000E800877F8093E8000E94591A8091E800DF
:103AF00083FF0AC08091E800877F8093E80080916F
:103B0000EB0080628093EB00AA960FB6F894DEBFBC
:103B10000FBECDBFDF91CF911F9108950895CF9330
:103B200080913D028823A1F0C091E900CF7090916F
:103B3000EC00892F817090FD80E8C82B1092E9007D
:103B40008091E80083FD0E943C1CCF70C093E90087
:103B5000CF91089597FB072E16F4009407D077FDB8
:103B600009D00E94C41D07FC05D03EF490958195B4
:103B70009F4F0895709561957F4F0895EE0FFF1F39
:103B80000590F491E02D0994AA1BBB1B51E107C0DD
:103B9000AA1FBB1FA617B70710F0A61BB70B881FDD
:103BA000991F5A95A9F780959095BC01CD0108956C
:103BB000F999FECF92BD81BDF89A992780B50895F5
:103BC000A8E1B0E042E050E00C940C1E262FF999D9
:103BD000FECF92BD81BDF89A019700B4021639F06C
:103BE0001FBA20BD0FB6F894FA9AF99A0FBE08953D
:103BF0000396272F0E94E71D0E94E61D252F0E9495
:103C0000E71D242F0C94E71D0196272F0E94E71D26
:103C10000C94E61DDC01CB01FC01F999FECF06C036
:103C2000F2BDE1BDF89A319600B40D92415050407A
:103C3000B8F70895F894FFCFFC0BFC0B540C540C10
:103C4000A60CC20C290C290CCD0C590D680D680D61
:103C5000C40D290C290CCD0D420E420E4B0E4B0EFD
:103C60004D0E4B0E4B0E4B0E420E420E520E4B0E95
:103C70004B0E520E651C8D1C761D8D1C761DC01CB6
:083C8000E11C761D381D441DF6
:103C88002808641E0A01EA01EC164B172A172617A2
:103C9800221701E200E900EA00B500B600B700CD3E
:103CA800008301CC008A019201940121022302249D
:103CB800022502260227022A02B300B4006F007010
:103CC80000818283E200E900EA00B500B600B7008F
:103CD800CD008301CC008A019201940121022302C4
:103CE80024022502260227022A02B300B4006F002C
:063CF800700081828300D0
:00000001FF
